:020000040800F2
:10000000600F002001010008090100080B01000831
:100010000D0100080F010008110100080000000098
:1000200000000000000000000000000013010008B4
:100030001501000800000000170100081901000860
:100040001B0100081B0100081B0100081B01000820
:100050001B0100081B0100081B0100081B01000810
:100060002D2300081B0100081B0100081B010008CC
:100070001B0100081B0100081B0100081B010008F0
:100080001B0100081B0100081B0100081B010008E0
:100090001B0100081B0100081B0100081B010008D0
:1000A0001B0100081B0100081B0100081B010008C0
:1000B0001B0100081B010008A14B00081B010008E0
:1000C0001B0100081B0100081B0100081B010008A0
:1000D0001B010008A55300081B0100081B010008B4
:1000E0001B0100081B0100081B010008DFF80CD0F1
:1000F00000F018FC00480047F9620008600F00207B
:100100000648804706480047FEE7FEE7FEE7FEE7B1
:10011000FEE7FEE7FEE7FEE7FEE7FEE7E54A00084A
:10012000ED0000080649074A0868504343F23902C7
:10013000104408604008704701490860704700009B
:10014000BC0200206D4EC64140EA01039B0703D06C
:1001500009E008C9121F08C0042AFAD203E011F806
:10016000013B00F8013B521EF9D27047F0B480EA1F
:100170000102D40F4200B2EB410F02D20246084600
:1001800011464A0042D0C30DDDB2C1F3C752AD1AC9
:10019000202D35DAC1F3160141F4000204B15242B8
:1001A000C5F1200602FA06F12A411044B3EBD05FF4
:1001B00023D0C4B1012DA0EBC35009DCF0BC4FF03B
:1001C000004202EAC352DBB200F5000000F0C8B9F9
:1001D000400000F1807000EBC350A0F1807040EA55
:1001E000D170490009E0490841EAC071A0EBC35051
:1001F00000F50000400800EBC350F0BC00F0A7B9C8
:100200006142012202EB4101001BF6E7F0BC70479E
:1002100081F00041AAE780F00040A7E780EA0102F0
:1002200010B502F00043400022D04A001FD0010E5A
:1002300001EB1261C0F35600C2F3560240F4000015
:1002400042F40002A0FB022000047F39140400D015
:10025000401C50EA124001D44000491EC2B20C06B4
:1002600004EBD010401C4008802A02D003E000209C
:1002700010BD20F00100002900DA0020184310BD55
:1002800030B480EA010202F0004530F0004221F073
:10029000004013D090B1C30DD40DC2F31601C0F3CA
:1002A0001600E41A41F4000140F400027D3491424A
:1002B00001D3641C00E04900002C02DA30BC0020AD
:1002C00070474FF400000023914201D3891A034381
:1002D00040084FEA4101F7D151B1914202D14FF0AC
:1002E000004105E002D24FF0010101E06FF0010191
:1002F00003EBC450284430BC00F029B92DE9FE4F6F
:1003000081EA030404F0004421F0004100944FF01E
:10031000000B23F0004350EA01045ED052EA0304CC
:100320005BD0C3F30A54C1F30A552C44A4F2F3344E
:100330000194A0FB0254C1F3130141F48011C3F3F3
:10034000130343F4801301FB024400FB034E840AB1
:10035000970A44EA815447EA8357A4FB0768029549
:100360008D0A05FB07854FEA932C04FB0C542705E7
:10037000029D4FEA065847EA1637B5EB08056EEBC3
:10038000070C870E920E47EA811742EA8312A7FBF9
:100390000201B6EB0B0164EB00042B0D43EA0C33B6
:1003A0005E1844EB1C50DA465146E7FB0201C5F3E8
:1003B00013044FEA0B3343EA14534FEA0432019C0F
:1003C00043EA0603A4F10C040294009CCDE900B4B6
:1003D00000F02DF903B0BDE8F08F00200146F9E7E9
:1003E000C10F80EAE0700844CA079623002100F09C
:1003F000B7B896230022114600F0B2B80EB5C10F6F
:1004000080EAE0700844CA07002140F233438DE8D7
:100410000E000A460B4600F00AF903B000BD00F0DA
:10042000004220F00040C10DC0F3160040F400006F
:100430007F2901DA00207047962903DCC1F196017B
:10044000C84001E096398840002AF4D04042704705
:1004500020F00040C10DC0F3160040F400007F29D9
:1004600001DA00207047962903DCC1F19601C840EB
:10047000704796398840704700F0004230F00040E5
:100480000AD0C10D01F56071C0F3160042EA0151B6
:10049000C208400711437047002001467047000022
:1004A00030B5041E71F1000404DB4FF000444042FB
:1004B00064EB0101141E73F1000405DB1C464FF0D0
:1004C0000043524263EB04038B4208BF824230BDBB
:1004D00001F0004330B421F0004150EA010206D09F
:1004E0000A0DA2F56072C1F31301002A02DC30BCD0
:1004F00000207047440F44EAC104C100E01830BC3A
:1005000000EBC25000F023B8002801DBC0F100402E
:10051000002901DBC1F1004181427047002801DB65
:10052000C0F10040002901DBC1F100418842704761
:10053000202A04DB203A00FA02F1002070479140A3
:10054000C2F1200320FA03F31943904070470029B9
:10055000A8BF7047401C490008BF20F00100704749
:1005600010B4B0FA80FC00FA0CF050EA010404BFA9
:1005700010BC704749B1CCF1200421FA04F411FAFF
:100580000CF118BF012121430843A3EB0C01CB1D43
:100590004FEA00614FEA102042BF002010BC7047B4
:1005A00000EBC35010440029A4BF10BC7047401C8E
:1005B000490008BF20F0010010BC7047420005D080
:1005C000C0F3C7525242914201DC0020704700EB59
:1005D000C150704710B541000CD0C0F3C7519629E7
:1005E00008DC7E2909DC06DB410204D000F0004073
:1005F00040F07E5010BD002010BDC1F19604C4F142
:10060000200100FA01F1E040FFF7A1FFA04010BD7A
:1006100010B5141E73F1000408DA401C41F100010A
:1006200092185B411A4301D120F0010010BD2DE961
:10063000F04D92469B4611B1B1FA81F202E0B0FA58
:1006400080F220329046FFF773FF04460F4640EADF
:100650000A0041EA0B0153465A46084313D011469B
:1006600053EA010019D0C8F14002504600F06CF97D
:1006700005460E46504659464246FFF759FF084385
:1006800005D0012004E020463946BDE8F08D002069
:10069000054346EAE0762C4337430A986305E40AAB
:1006A000A0EB08000022FD0A44EA47540A3002D5B4
:1006B00000200146E9E7010510196941DDE9084517
:1006C00000196941BDE8F04DA2E72DE9FE4F8046D3
:1006D00081EA0300C00F0C46009021F0004123F096
:1006E0000045B8EB0200A94105D24046214690469C
:1006F0001C460B46024623F00040104347D0270D0E
:10070000C7F30A00C3F30A510290401A019040282F
:100710006BDAC3F3130040F4801B0098924620B1BB
:100720000023D2EB030A63EB0B0B01985946C0F18F
:1007300040025046FFF7FCFE06460D46504659461D
:10074000019A00F011F910EB08006141002487EADA
:10075000115284EAE7731A4340D0009A62B3019AB7
:10076000012A4FEA075215DC001B61EB02014FF032
:10077000004202EA0752CDE90042001C41F5801117
:1007800032462B46FFF753FF03B0BDE8F08F4046DB
:100790002146F9E7001B61EB0201001C41F58013C3
:1007A00000185B412018A2F5001747EB030140EA4F
:1007B000D570B6196D4111E06D084FEA360645EA6D
:1007C000C0754FEA0752001B61EB0201001C41F5A6
:1007D000801149084FEA30000019514132462B463A
:1007E00003B0BDE8F04FFFF713BF009801224000AF
:1007F0000023D0EB020263EBE073009821464FEA3E
:10080000E074B8EB000061EB0401E9E783F000431A
:100810005BE781F0004158E72DE9F04D81EA0304E0
:1008200004F0004B21F0004514464FF0000A23F07D
:10083000004150EA050220D054EA01021DD0C5F360
:100840000A570246C5F31303C1F31300C1F30A5656
:1008500040F4801543F48013A7EB0608101BD6461E
:1008600008F2FD3873EB050002D308F1010801E03E
:1008700092185B41B8F1000F03DA00200146BDE891
:10088000F08D00204FF48011064684460EE0171BC1
:1008900073EB050705D3121B63EB050306434CEA14
:1008A000010C49084FEA300092185B4150EA0107F9
:1008B000EDD152EA030012D082EA040083EA050176
:1008C000084305D0101BAB4106D20122002306E0ED
:1008D00000224FF0004302E06FF0010253101AEBC8
:1008E00006004CEB085110EB0A0041EB0B01BDE890
:1008F000F04DFFF78DBE70B521F0004303430CD0DF
:10090000C1F30A550024D5EB040564EB0403D617A4
:10091000AD1AB34102DB0020014670BD201841EB47
:10092000025170BD064C074D06E0E06840F001033F
:1009300094E8070098471034AC42F6D3FFF7DAFB8F
:100940004066000860660008202A04DB203A21FA8D
:1009500002F00021704721FA02F3D040C2F12002D8
:100960009140084319467047202A06DBCB17203AEE
:1009700041FA02F043EAE07306E041FA02F3D040A4
:10098000C2F1200291400843194670472DE9F04D0D
:1009900000231A461B1A8A4103DB00200146BDE8EA
:1009A000F08DC1F30A52C1F3130141F480154FF0E9
:1009B000000BD10702D100186D41521E00270446DA
:1009C00040F2FF11384601EB620A3E46804602467D
:1009D00000204FF48011FFF7B7FFC2197141BB1817
:1009E00046EB0100B4EB030C75EB000C04D3E41AE6
:1009F00065EB000517460E46241908F101006D410C
:100A000080463428E3DDF91946EB0600091BA841AE
:100A100003D24FF0FF32134601E0002213461BEBD6
:100A2000070046EB0A51BDE8F04DFFF7F1BD70B588
:100A30008C1810F8015B15F0070301D110F8013B89
:100A40002A1106D110F8012B03E010F8016B01F810
:100A5000016B5B1EF9D12B0705D40023521E0DD468
:100A600001F8013BFAE710F8013BCB1A921C03E0B6
:100A700013F8015B01F8015B521EF9D5A142D8D3EE
:100A8000002070BD10B503F071FA03F0E3FA6420A2
:100A900001F004FC03F06AFA642001F0FFFB03F0AC
:100AA000D9FA642001F0FAFB03F060FA642001F047
:100AB000F5FB03F0CFFA642001F0F0FB03F056FAE7
:100AC00010BD21B1826842F00102826003E08268B9
:100AD00022F00102826070470146C86C80B2704704
:100AE0000246002013680B400BB1012000E00020FB
:100AF0007047000030B502460020002350680F4CBC
:100B000020400D790C6844EA052420435060906829
:100B10000B4C2040D1E902542C434D7944EA450462
:100B200020439060D06A20F470000C7C641EE4B214
:100B3000234340EA0350D06230BD0000FFFEF0FFC7
:100B4000FDF7F1FFF0B504460D4600200021092D08
:100B500011DDE068A5F10A0606EB4607072606FA4E
:100B600007F18843A5F10A0606EB460603FA06F1EB
:100B70000843E0600CE0206905EB4507072606FA0C
:100B800007F1884305EB450603FA06F108432061A7
:100B9000072A0FDA606B561E06EB86071F2606FA39
:100BA00007F18843561E06EB860605FA06F1084350
:100BB000606322E00D2A0FDA206BD61F06EB860752
:100BC0001F2606FA07F18843D61F06EB860605FAAC
:100BD00006F10843206310E0E06AA2F10D0606EB7F
:100BE00086071F2606FA07F18843A2F10D0606EBD9
:100BF000860605FA06F10843E062F0BD21B182687D
:100C000042F4A002826003E0826822F4A0028260C3
:100C1000704700002DE9F04F87B0C0480078401CB5
:100C2000BE490870BE480078401CBD490870BD48E8
:100C30000078401CBB490870BB480078401CBA498A
:100C40000870BA480078401CB8490870B34800786A
:100C5000372805DB0020B14908700120B4494870ED
:100C6000AF480078052805DB0020AD490870012059
:100C7000AF498870AB480078142805DB0020A949EB
:100C800008700120AA49C870A7480078232805DB0E
:100C90000020A54908700120A5490871A3480078E3
:100CA0003C2805DB0020A14908700120A0494871BB
:100CB0009F48407878B100209D4948709D48007851
:100CC00000219D4BCDE900109A68596818680023EF
:100CD00000F092FE1FE19648807800286DD0002039
:100CE0009349887095498868FFF799FB0FFA80FB54
:100CF0005846FFF775FB82469149FFF78FFA814608
:100D0000FFF78DFB04B28D494868FFF788FB0FFAA7
:100D100080FB5846FFF764FB82468949FFF77EFA5D
:100D20008146FFF77CFB05B284490868FFF777FB33
:100D30000FFA80FB5846FFF753FB82468049FFF7C6
:100D40006DFA8146FFF76BFB06B27E498868FFF7B4
:100D500066FB07B27B494868FFF761FB0FFA80F832
:100D600078490868FFF75BFB00B20690002002900C
:100D70000390049033463A464146CDE9005405902D
:100D8000069800F07BFD6D4988686D49FFF746FACB
:100D900004466D48006B6C49C96A6B4A926A6A4B9B
:100DA000DB68CDE90032CDE902106848036BC26A06
:100DB000816A204601F0ECF8ADE05D48C07818B1DA
:100DC00000205B49C870A6E05948007918B100209E
:100DD000574908719FE05648407988B1002054492E
:100DE00048715B4988685B49FFF718FA0546FFF7C9
:100DF0002FFB84B24FF4E471204600F0F5FC8AE04A
:100E00004B488079D0B10020494988714F488168AA
:100E100042680068504B9B68CDE90230CDE904215F
:100E20004D4840684C490968CDE900104B4883683B
:100E300042680168012000F0D1FB6CE03C48C079B9
:100E4000E0B100203A49C8713F4880683E4949688E
:100E50003D4A1268424B9B68CDE90232CDE904104D
:100E60003F4840683E490968CDE900103D48836825
:100E700042680168022000F0B1FB4CE02C48007A87
:100E8000B8B100202A490872002137488068CDE9AE
:100E90000201049134480591406833490968CDE95D
:100EA00000103248836842680168032000F096FB16
:100EB00031E01F48407A70B300201D4948722C4829
:100EC0002C498A072C4BCDE90232CDE904102B487E
:100ED0002B490246CDE90010012000F07FFB0020E5
:100EE000284ACDE9020204900590274827490023AB
:100EF0000246CDE90010022000F070FB00200290B5
:100F0000039004900590009003460246014601902C
:100F1000032000F063FB07B0BDE8F08F7D020020E6
:100F20007E0200207F02002080020020810200203B
:100F3000EE0A0020790200205808002064080020F2
:100F4000A34C65427C08002048090020FC090020D1
:100F5000E00100200000C842C009002084090020F0
:100F60000C090020D0080020740A0020380A002054
:100F70007B142E3FCDCC4C3D5C8FC23E295C0F3D97
:100F80006666263F0000A0400AD7233C9A99194084
:100F90002DE9F05F04460D460026B14607E014F83F
:100FA00009003044C6B209F1010000F0FF09681ED3
:100FB0004845F4DC601910F8010CB04201D0BDE8DE
:100FC000F09F2078AA2802D16078AF2800D0F6E7F9
:100FD000A07801283ED1207901280AD1FE48007866
:100FE00040F00200FC4908700020FC49088048805D
:100FF0008880207902280AD1F748007840F0010063
:10100000F54908700020F6490880488088802079DA
:1010100003280AD1F048007840F00200EE49087039
:101020000846007840F001000870207904280FD1AC
:10103000EC48007880F00100EA4908700846007822
:1010400018B10120E849087002E00020E649087064
:1010500002F05CFCA078022812D12079012803D18B
:10106000E2498871C87108722079A02802D1012054
:10107000DE4908702079A12802D10120DB4948729D
:10108000A07810287ED12179090209B2627941EA5B
:101090000200FFF7B3F98246D54AD64BFFF72EF987
:1010A0000746FFF715FAD4490860A179090209B289
:1010B000E27941EA0200FFF7A1F98246CC4ACD4B22
:1010C000FFF71CF90746FFF703FACB494860217A7E
:1010D000090209B2627A41EA0200FFF78FF98246FB
:1010E000C34AC44BFFF70AF90746FFF7F1F9C249B3
:1010F0008860A17A090209B2E27A41EA0200FFF7A8
:101100007DF98246BA4ABB4BFFF7F8F80746FFF76E
:10111000DFF9BA490860217B090209B2627B41EA22
:101120000200FFF76BF98246B14AB24BFFF7E6F8CF
:101130000746FFF7CDF9B1494860A17B090209B222
:10114000E27B41EA0200FFF759F98246A84AA94B1F
:10115000FFF7D4F80746FFF7BBF9A8498860217C60
:10116000090209B2627C41EA0200FFF747F98246B0
:101170009F4AA04BFFF7C2F80746FFF7A9F9A0491D
:10118000086000E029E0A17C090209B2E27C41EAA2
:101190000200FFF733F98246954A964BFFF7AEF807
:1011A0000746FFF795F996494860217D090209B283
:1011B000627D41EA0200FFF721F907468C4A8D4B18
:1011C000FFF79CF88246FFF783F98D498860A07885
:1011D000314600F0D7F902F099FBA07811287DD1B3
:1011E0002179090209B2627941EA0200FFF706F9A2
:1011F00007467F4A7F4BFFF781F88246FFF768F981
:1012000080490860A179090209B2E27941EA020045
:10121000FFF7F4F88246764A764BFFF76FF80746F9
:10122000FFF756F977494860217A090209B2627AD4
:1012300041EA0200FFF7E2F882466D4A6D4BFFF784
:101240005DF80746FFF744F96E498860A17A090204
:1012500009B2E27A41EA0200FFF7D0F80746644A91
:10126000644BFFF74BF88246FFF732F96649086096
:10127000217B090209B2627B41EA0200FFF7BEF856
:1012800007465B4A5B4BFFF739F88246FFF720F9C8
:101290005D494860A17B090209B2E27B41EA020094
:1012A000FFF7ACF88246524A524BFFF727F8074641
:1012B000FFF70EF954498860217C090209B2627C6B
:1012C00041EA0200FFF79AF88246494A494BFFF784
:1012D00015F80746FFF7FCF84C4900E02AE00860E3
:1012E000A17C090209B2E27C41EA0200FFF786F81C
:1012F00007463F4A3F4BFFF701F88246FFF7E8F801
:1013000042494860217D090209B2627D41EA02003A
:10131000FFF774F80746364A364BFEF7EFFF824672
:10132000FFF7D6F839498860A078314600F02AF9ED
:1013300002F0ECFAA07812286ED12179090209B2E4
:10134000627941EA0200FFF759F80746284A294B1B
:10135000FEF7D4FF8246FFF7BBF82D490860A1795C
:10136000090209B2E27941EA0200FFF747F80746AD
:101370001F4A204BFEF7C2FF8246FFF7A9F8244917
:101380004860217A090209B2627A41EA0200FFF755
:1013900035F80746164A174BFEF7B0FF8246FFF7AF
:1013A00097F81B498860A17A090209B2E27A41EAFA
:1013B0000200FFF723F807460D4A0E4BFEF79EFF8B
:1013C0008246FFF785F813490860217B090209B2BC
:1013D000627B41EA020020E01C0200200A02002099
:1013E000040200207C02002079020020EE0A002086
:1013F000FCA9F1D24D62503F84090020C0090020B1
:10140000FC090020D00800200C0900204809002019
:10141000380A0020740A002023E0FEF7EFFF074699
:101420001B4A1C4BFEF76AFF8246FFF751F81A4928
:101430004860A17B090209B2E27B41EA0200FEF7A3
:10144000DDFF0746124A134BFEF758FF8246FFF7AF
:101450003FF811498860A078314600F093F802F017
:1014600055FAA078132803D1A078314600F08AF805
:10147000A078142803D1A078314600F083F8A07832
:10148000152803D1A078314600F07CF800BF96E51E
:10149000FCA9F1D24D62503F740A002010B50446F9
:1014A0003448007838B9AA2C05D101203149087098
:1014B000314804705DE02F480078012807D1AF2C37
:1014C00005D102202B4908702B48447051E029486F
:1014D0000078022807D1F12C05DA0320254908708D
:1014E0002548847045E02348007803280CD1322C2D
:1014F0000ADA04201F4908701F48C4701F4804708E
:1015000000201F49087034E01A480078042819D1D7
:101510001A480078002815DD18480078401E174941
:1015200008701748007816490978491C144A117048
:10153000001D11490C5411480078D0B905200D49FF
:10154000087016E00B48007805280FD100200949E3
:1015500008700B480078001D07490C5408480078B3
:10156000401DC1B20448FFF713FD02E0002001490D
:10157000087010BD840200202A0B00208202002087
:10158000830200202DE9F04105460E460027AA20DF
:101590000D4908704870EF2088700220C870084616
:1015A00005714671002405E00748005D3844C7B264
:1015B000601CC4B2062CF7DB03488771072100F0DA
:1015C00005F8BDE8F0810000F80A002070B5044677
:1015D0000D462946204604F07FFF70BD2DE9FC5FD3
:1015E00006460F4690469946DDF830B00024A246E4
:1015F000AA222146641C7A4842542146641C425463
:1016000006F10F00C2B22146641C75484254002204
:101610002146641C425473493846FEF7FFFD009092
:10162000FEF7FDFE00B201909DF805202146641CE6
:101630006B4842549DF804202146641C4254694979
:101640004046FEF7EBFD0090FEF7E9FE00B2019088
:101650009DF805202146641C614842549DF80420F1
:101660002046611CCCB25E490A545E494846FEF7EA
:10167000D5FD0090FEF7D3FE00B201909DF8052045
:101680002046611CCCB256490A549DF804202046DD
:10169000611CCCB252490A5452495846FEF7BEFD6D
:1016A0000090FEF7BCFE00B201909DF80520204698
:1016B000611CCCB24A490A549DF804202046611CA2
:1016C000CCB247490A5447490D98FEF7A7FD009050
:1016D000FEF7A5FE00B201909DF805202046611C92
:1016E000CCB23F490A549DF804202046611CCCB27C
:1016F0003B490A543B490E98FEF790FD0090FEF7D7
:101700008EFE00B201909DF805202046611CCCB2EF
:1017100033490A549DF804202046611CCCB230495C
:101720000A5430490F98FEF779FD0090FEF777FED6
:1017300000B201909DF805202046611CCCB22849DA
:101740000A549DF804202046611CCCB224490A5456
:1017500024491098FEF762FD0090FEF760FE00B28B
:1017600001909DF805202046611CCCB21C490A540A
:101770009DF804202046611CCCB219490A5419492D
:101780001198FEF74BFD0090FEF749FE00B2019064
:101790009DF805202046611CCCB211490A549DF8E1
:1017A00004202046611CCCB20D490A54201FC87089
:1017B000002506E00A48405D504400F0FF0A681C1E
:1017C000C5B2A542F6DB2046611CCCB2044901F843
:1017D00000A021460248FFF7F9FEBDE8FC9F00008B
:1017E000F80A002000007A442DE9F84306460F4627
:1017F0000024A046AA222146641C1F4842542146C8
:10180000641C425405222146641C42540022214695
:10181000641C425400969DF801202146641C4254E9
:101820009DF800202146641C425400979DF8012039
:101830002146641C42549DF800202046611CCCB215
:101840000D490A54201FC870002506E00A48405D73
:10185000404400F0FF08681CC5B2A542F6DB2046F4
:10186000611CCCB2044901F8008021460248FFF710
:10187000ADFEBDE8F8830000F80A00202DE9F84F1E
:1018800006460F4690469946DDF828B00024A24649
:10189000AA222146641C574842542146641C4254E3
:1018A00002222146641C425400222146641C4254F8
:1018B00000969DF801202146641C42549DF80020AA
:1018C0002146641C425400979DF801202146641C67
:1018D00042549DF800202046611CCCB245490A5470
:1018E000CDF800809DF801202046611CCCB2414912
:1018F0000A549DF800202046611CCCB23D490A5490
:10190000CDF800909DF801202046611CCCB23949E9
:101910000A549DF800202046611CCCB235490A5477
:10192000CDF800B09DF801202046611CCCB23149B1
:101930000A549DF800202046611CCCB22D490A545F
:101940000B9800909DF801202046611CCCB22949DB
:101950000A549DF800202046611CCCB225490A5447
:101960000C9800909DF801202046611CCCB22149C2
:101970000A549DF800202046611CCCB21D490A542F
:101980000D9800909DF801202046611CCCB21949A9
:101990000A549DF800202046611CCCB215490A5417
:1019A0000E9800909DF801202046611CCCB2114990
:1019B0000A549DF800202046611CCCB20D490A54FF
:1019C000201FC870002506E00A48405D504400F022
:1019D000FF0A681CC5B2A542F6DB2046611CCCB2EA
:1019E000044901F800A021460248FFF7EFFDBDE8D9
:1019F000F88F0000F80A00202DE9FE4F82460E46BF
:101A000017469846DDF830B00024A146CDF8048092
:101A1000AA222146641C484842542146641C425470
:101A200001222146641C425400222146641C425477
:101A300042495046FEF7F2FB0090FEF7F0FC00B280
:101A400002909DF809202146641C3B4842549DF8B1
:101A500008202146641C425438493046FEF7DEFB1C
:101A60000090FEF7DCFC00B202909DF809202146B0
:101A7000641C314842549DF808202146601CC4B2C1
:101A80002D4842542D493846FEF7C8FB0090FEF71A
:101A9000C6FC00B202909DF809202046611CCCB221
:101AA00025490A549DF808202146601CC4B22248EA
:101AB00042549DF807202046611CCCB21E490A54AE
:101AC0009DF806202046611CCCB21B490A549DF8A3
:101AD00005202046611CCCB217490A549DF8042009
:101AE0002146601CC4B2144842542046611CCCB24A
:101AF000114901F800B02146621CD4B20E4A0D987B
:101B00005054201F1146C870002506E00A48405D69
:101B1000484400F0FF09681CC5B2A542F6DB204628
:101B2000611CCCB2044901F8009021460248FFF73D
:101B30004DFDBDE8FE8F0000F80A00200000C842FD
:101B40002DE9F04706460F4614464FF000081A48A4
:101B50001A49097840F8216018480078401C174954
:101B6000087008460078A04204DA1548007808B1E9
:101B7000BDE8F087002012490870002508E00E48F3
:101B800050F825104046FEF7F1FA8046681CC5B2B1
:101B9000A542F4DB09480078A04202DB0020074997
:101BA00008702046FEF725FC814649464046FEF770
:101BB00067FB386000BFDBE7B80700203802002071
:101BC0003902002000B50948007868B1084800785B
:101BD00028B100200649087002F0D5F904E0012080
:101BE0000349087002F0C2F900BD0000F4010020B2
:101BF000D901002070B5012000F0FEFD0646FEF779
:101C0000F8FB054606220D49FFF79AFF0B490868C5
:101C10000021FEF779FC09D0084A51681068FEF7E8
:101C2000FDFA05460649FEF72BFB044621464FF018
:101C30008040FEF7F3FA0149886070BDE0010020A2
:101C400000F07F4500B587B001214FF4017002F02C
:101C5000F1F84FF4004002F0D1F80220ADF818007E
:101C600000208DF81B0006A9104800F017FD002089
:101C70000190049001208DF8140000208DF80800D8
:101C80004FF46020039000208DF8090001A9084856
:101C9000FEF730FF01210648FEF713FF072301225C
:101CA00011460348FEF74EFF07B000BD0008014093
:101CB0000024014010B504461C480078C007B0EB72
:101CC000C47F0FD004F0010038B10120184908701A
:101CD00002F037F902F04AF904E0002014490870D4
:101CE00002F044F904F0040028B11248007840F0F2
:101CF0000100104908700D48007800F0080004F059
:101D0000080188420FD004F0080030B1094800787B
:101D100040F040000749087005E00648007820F0D0
:101D20004000044908700148047010BD9002002072
:101D3000790200201C0200202DE9F04F87B00546F3
:101D40000E46144699462868049068680590A8686D
:101D50000690B4F90010A1F2DC50FEF741FB0746F3
:101D60007C49FEF78DFA0190B4F90210A1F2DC5023
:101D7000FEF736FB07467749FEF782FA0290B4F980
:101D8000061040F2DC52501AFEF72AFB0746714952
:101D9000FEF776FA03907048007810B9002003909F
:101DA0000CE00398FEF768FB21F000410746002293
:101DB0006A4BFEF775FB01D200200390684800785B
:101DC000C0F3801018B104A901A803F0D7FC65483E
:101DD000049A019901F0EAFC6348059A029901F01E
:101DE000E5FC62497068FEF719FA07465D483A4615
:101DF000416B5F4801F0DAFC5C493068FEF70EFA8F
:101E000080F0004758483A46416B5A4801F0CEFCF2
:101E10005649B068FEF702FA0746574A1168039818
:101E2000FEF7FCF980463A464146544801F0BEFCB4
:101E3000B4F90400B42863DDB9F1000F60D0B4F93F
:101E40000400FEF7CDFA82464948416B5046FEF742
:101E50008DF980464748416B4046FEF787F90746B3
:101E60004648416B3846FEF7D3F945490860B4F956
:101E70000400FEF7B5FA82463D48416B5046FEF736
:101E8000C7F980463B48416B4046FEF76FF907466D
:101E90003A48416B3846FEF769F93A490860B4F9A7
:101EA0000400FEF79DFA82463148416B5046FEF72A
:101EB000AFF980462F48416B4046FEF7A9F9074627
:101EC0002E48416B3846FEF7A3F92F490860B4F954
:101ED0000400FEF785FA82462548416B5046FEF71E
:101EE00045F980462348416B4046FEF791F9074685
:101EF0002248416B3846FEF739F92449086008E06A
:101F000000201F4908601F4908601F4908601F49D9
:101F100008601E480068FEF782FA07B21A48006897
:101F2000FEF77DFA0FFA80F816480068FEF777FA98
:101F30000FFA80FA12480068FEF771FA0FFA80FB78
:101F40003B4642465146584601F092FB07B0BDE879
:101F5000F08F000000004041780200200000104097
:101F60001C020020D00800200C090020A34C654270
:101F700084090020C009002048090020FC09002035
:101F8000680200206C020020700200207402002011
:101F90002DE9F84F06460F4690469946DDF828B0E1
:101FA0000024A246AA222146641C874842542146A6
:101FB000641C4254F1222146641C425400222146F2
:101FC000641C425400969DF803202146641C425430
:101FD0009DF802202146641C42549DF801202146B0
:101FE000641C42549DF800202046611CCCB2764906
:101FF0000A5400979DF803202046611CCCB2724918
:102000000A549DF802202146601CC4B26E48425416
:102010009DF801202046611CCCB26B490A549DF802
:1020200000202046611CCCB267490A54CDF80080DC
:102030009DF803202046611CCCB263490A549DF8E8
:1020400002202046611CCCB25F490A549DF8012051
:102050002046611CCCB25C490A549DF80020204601
:10206000611CCCB258490A54CDF800909DF8032069
:102070002046611CCCB254490A549DF802202046E7
:10208000611CCCB250490A549DF801202046611CC5
:10209000CCB24D490A549DF800202046611CCCB2B8
:1020A00049490A54CDF800B09DF803202046611C30
:1020B000CCB245490A549DF802202046611CCCB29E
:1020C00041490A549DF801202046611CCCB23E498A
:1020D0000A549DF800202046611CCCB23A490A54AB
:1020E0000B9800909DF803202046611CCCB2364925
:1020F0000A549DF802202046611CCCB232490A5491
:102100009DF801202046611CCCB22F490A549DF84D
:1021100000202046611CCCB22B490A540C98009038
:102120009DF803202046611CCCB227490A549DF833
:1021300002202046611CCCB223490A549DF801209C
:102140002046611CCCB220490A549DF8002020464C
:10215000611CCCB21C490A540D9800909DF80320D4
:102160002046611CCCB218490A549DF80220204632
:10217000611CCCB214490A549DF801202046611C10
:10218000CCB211490A549DF800202046611CCCB203
:102190000D490A54201FC870002506E00A48405D1A
:1021A000504400F0FF0A681CC5B2A542F6DB204689
:1021B000611CCCB2044901F800A021460248FFF797
:1021C00005FABDE8F88F0000F80A00200020124947
:1021D000088048808880C880088148818881C881BB
:1021E000088248828882C882088348838883C8839B
:1021F0000884488440F26C7088840620C8840020DB
:10220000088548858885C885088648868886C88662
:102210000887488770470000B00A002070B5FFF7B4
:10222000D5FF3E242046E11704EB91718910A4EB01
:102230008101091D09B1012100E0002194FBF1F1A8
:10224000CDB22A460249034802F068FA70BD000088
:10225000B00A002000F8010810B56FF0040002F089
:102260002DFC0A4800680A49B0FBF1F009490870E2
:102270000846007800EB4001C1EBC0104FF6FF713B
:1022800001EAC0000449088010BD0000A802002037
:1022900000127A00DA010020DC0100200146002251
:1022A0004FF0E0231A610E4A12884A435A61002215
:1022B0009A611A46126942F001021A6100BF4FF09A
:1022C000E022106900F001021AB100F48032002A05
:1022D000F5D000224FF0E0231A619A6170470000A8
:1022E000DC010020014600224FF0E0231A610E4A73
:1022F00012784A435A6100229A611A46126942F0E2
:1023000001021A6100BF4FF0E022106900F00102E3
:102310001AB100F48032002AF5D000224FF0E023F9
:102320001A619A6170470000DA01002010B504209C
:1023300000F042F8002834D01A48006840F4807059
:1023400018490860072002F0ABF8044604F02000AA
:1023500050B10F2002F002F92021272002F0E2F80C
:10236000FF21E12002F0DEF804F0400040B10E4809
:1023700001F0FAFF01F090FE4021272002F0D2F890
:1023800004F0100050B10F2002F0E8F810212720CF
:1023900002F0C8F8FF21E12002F0C4F8042000F0A8
:1023A00005F810BD14080140E8020020014908604A
:1023B0007047000014040140014600200022074B32
:1023C0001B6803EA0102054B14331B680B4013B171
:1023D0000AB1012000E00020704700000004014025
:1023E000002123498279002A3AD00A4612680368FC
:1023F0009A430B461A600A1D126803689A430B1D24
:102400001A60027911440A6803681A430A60184A7C
:102410000832126803689A43154B08331A601A1D74
:10242000126803689A43124B0C331A604279102ADF
:102430000ED11A1F126803681A430D4B08331A6035
:102440001A1D126803681A43094B0C331A600DE019
:102450000749427911440A6803681A430A6005E093
:10246000027911440A6803689A430A6070470000C1
:10247000000401400EB50121092001F0DBFC02211E
:10248000012000F0EBF80420ADF8080048208DF89A
:102490000B0003208DF80A0002A9094800F0FEF89D
:1024A0000420009000208DF804000C208DF8050019
:1024B00001208DF806006846FFF792FF0EBD000070
:1024C000000C014030B5044604254FF4302000F0E4
:1024D00085F80546042D17D10C48006940F002002C
:1024E0000A49086108464461006940F040000861FB
:1024F0004FF4302000F072F805460448006941F6B8
:10250000FD71084001490861284630BD00200240A5
:1025100004200B49C96801F0010109B101200EE056
:102520000749C96801F0040109B1022007E0044924
:10253000C96801F0100109B1032000E004207047D0
:10254000002002400348006940F080000149086112
:10255000704700000020024078B506460C4604256E
:1025600000200090E80200F039F80546042D24D13F
:102570001348006940F00100114908613480E80205
:1025800000F02CF80546042D10D1B01C0090200C52
:1025900000990880E80200F021F805460848006923
:1025A00041F6FE7108400649086106E004480069EA
:1025B00041F6FE71084002490861284678BD0000D6
:1025C00000200240024803494860034848607047C1
:1025D0002301674500200240AB89EFCD00B50246DC
:1025E0000423FFF795FF034603E0FFF791FF03463F
:1025F000521E012B01D1002AF7D102B9052318463A
:1026000000BD2DE9F04105460C46164655F82470EC
:102610001BE000E0761EB44205DA55F82600394684
:10262000FDF77CFFF6D955F8260045F8240000E0B8
:10263000641CB44205DA55F824003946FDF764FFFE
:10264000F6D955F8240045F82600B442E1DB45F8F8
:1026500024702046FDF7C4FEBDE8F08130B50022AD
:102660008B071C0F0F2303FA04F20B4B8C1053F84B
:1026700024309343084C8D1044F8253023468C10A9
:1026800053F824308C07240F00FA04F42343024C3F
:102690008D1044F8253030BD080001402DE9F0418F
:1026A000024600250026002000230024002791F880
:1026B00003C00CF00F0591F803C00CF0100CBCF136
:1026C000000F03D091F802C04CEA050591F800C054
:1026D000BCF1000F31D0146800202BE04FF0010C4A
:1026E0000CFA00F3B1F800C00CEA03069E4220D1B8
:1026F00083004FF00F0C0CFA03F7BC4305FA03FC00
:102700004CEA040491F803C0BCF1280F06D14FF045
:10271000010C0CFA00FCC2F814C00AE091F803C0E6
:10272000BCF1480F05D14FF0010C0CFA00FCC2F8C7
:1027300010C0401C0828D1D31460B1F800C0BCF10F
:10274000FF0F34DD546800202EE000F1080C4FF03C
:10275000010808FA0CF3B1F800C00CEA03069E4227
:1027600021D183004FF00F0C0CFA03F7BC4305FA9C
:1027700003FC4CEA040491F803C0BCF1280F05D116
:1027800000F1080C08FA0CF8C2F8148091F803C0A4
:10279000BCF1480F07D100F1080C4FF0010808FA0E
:1027A0000CF8C2F81080401C0828CED35460BDE855
:1027B000F081416170470161704710B501F0D6FBAF
:1027C00001F0B2FB6420FFF769FD01F0CFFB64204C
:1027D000FFF764FD01F0A8FB6420FFF75FFD01F047
:1027E000C5FB6420FFF75AFD01F09EFB6420FFF754
:1027F00055FD01F0BBFB10BD10B5044607230122B7
:1028000021460948FEF79EF901210748FEF7F6F92F
:1028100000BF02210448FEF763F90028F9D00248FE
:10282000FEF75AF910BD00000024014010B5402009
:102830000A49086001F08CFC8020084908600120EA
:10284000FFF750FD40200549091F08600220FFF7EF
:1028500049FD40200149086010BD0000140C0140F2
:1028600008B50121082001F0E5FAC020ADF800000C
:1028700010208DF8030003208DF8020069460448FB
:10288000FFF70CFFC0210248FFF795FF08BD0000CD
:10289000000C014010B540200A49086001F058FCC6
:1028A00080200849091F08600120FFF71BFD402018
:1028B0000449091F08600120FFF714FD4020014969
:1028C000086010BD140C014070B50546002401F0ED
:1028D0002DFC002618E04020104908600120FFF779
:1028E00001FD40200D49091F08606006040E0B48D9
:1028F0000C380068C0F3C01008B1601CC4B20120DD
:10290000FFF7F0FC701CC6B2082EE4DB15B1FFF730
:102910008DFF01E0FFF7BEFF204670BD140C0140A3
:1029200070B504460D46164600F086F8204600F0C5
:1029300055F800F0B3F818B100F098F8012070BD18
:10294000284600F04BF800F0A9F800F075F8611C7B
:10295000C8B200F043F800F0A1F80020FFF7B4FF80
:10296000307000F083F80020E9E72DE9F0470646D3
:102970000F4615469846002400F05EF8304600F0F9
:102980002DF800F08BF820B100F070F80120BDE8C0
:10299000F087384600F022F800F080F800F04CF89C
:1029A000711CC8B200F01AF800F078F800240FE0AB
:1029B000681EA04204D00120FFF786FF814603E095
:1029C0000020FFF781FF814608F80490601CC4B224
:1029D000AC42EDDB00F04AF80020D8E770B50446C1
:1029E00001F0B6FB40201349086000251EE004F00A
:1029F000800020B180200F49091F086002E080207C
:102A00000C4908606006040E0120FFF76BFC4020B3
:102A10000849091F08600120FFF764FC40200549B0
:102A200008600120FFF75EFC681CC5B2082DDEDBE4
:102A300070BD0000140C014010B501F089FB80202E
:102A400009490860402008600420FFF74BFC802003
:102A50000549091D08600420FFF744FC4020024995
:102A6000091D086010BD0000100C014010B501F0F8
:102A70006FFB402008490860802008600420FFF7B1
:102A800031FC40200449091F0860802008600420B0
:102A9000FFF728FC10BD0000140C014010B5002405
:102AA00001F044FB8020104908600120FFF71AFC68
:102AB00040200D4908600120FFF714FC07E0601C6E
:102AC000C4B2FA2C03DDFFF7D1FF012010BD064888
:102AD00008380068C0F3C0100028F0D14020024937
:102AE000091D08600020F1E7100C014070B5064692
:102AF0000C461546FFF7A0FF3046FFF76FFFFFF7C4
:102B0000CDFF18B1FFF7B2FF012070BD2046FFF7DF
:102B100065FFFFF7C3FF2846FFF760FFFFF7BEFF23
:102B200018B1FFF7A3FF0120EFE7FFF79FFF002099
:102B3000EBE7000007B5AEB02422FE4923A8FDF75D
:102B400003FB2F98006822902F98406821902F98BF
:102B5000806820902E9800681F902E9840681E90E4
:102B60002E9880681D90F44801680068FDF756FBB8
:102B70001590F2480168F0480068FDF74FFB14908B
:102B8000EF480168EC480068FDF748FB1390ED48FA
:102B90000168E9480068FDF741FB1290E7480168C9
:102BA0000068FDF73BFB1190E5480168E3480068C9
:102BB000FDF734FB1090E3480168E0480068FDF73A
:102BC0002DFB0F90DE4801680068FDF727FB0E9093
:102BD000DC480168DA480068FDF720FB0D90D94811
:102BE00001680068FDF71AFB0C90DDE92110FDF784
:102BF00015FB0A902099FDF711FB00210B90FDF7C2
:102C000083FC01D131B000BD20990846FDF706FBD9
:102C10000A9021990846FDF701FB08902299084681
:102C2000FDF7FCFA07900899FDF7A0FA09900A99B8
:102C3000FDF79CFA0B9003F039FB16901699229839
:102C4000FDF7ECFA229016992198FDF7E7FA21900A
:102C500016992098FDF7E2FA209013990F98FDF746
:102C6000D7FA4FF080410B90FDF7D8FA1C900D99E0
:102C70001498FDF77BFA4FF080410B90FDF7CEFAE8
:102C80001B9011991598FDF7C3FA0A900E99FDF75C
:102C9000BFFA0B900C99FDF769FA1A901B992098CE
:102CA000FDF7BCFA0B901A992198FDF7B7FA0A9034
:102CB0000B99FDF7ADFA19901A992298FDF7AEFA23
:102CC0000B901C992098FDF7A9FA0A900B99FDF733
:102CD0009FFA18901C992198FDF7A0FA0B901B9968
:102CE0002298FDF79BFA0A900B99FDF791FA17903D
:102CF00095491998FDF792FA0B90944801680B9842
:102D0000FDF734FA914908608F491898FDF786FA63
:102D10000B908F4801680B98FDF728FA8C490860E2
:102D200089491798FDF77AFA0B908A4801680B9841
:102D3000FDF71CFA874908604FF07F501999FDF79D
:102D40006DFA0A901F99FDF711FA0B907F48016800
:102D50000B98FDF70BFA1F904FF07F501899FDF775
:102D60005DFA0A901E99FDF701FA0B907848016808
:102D70000B98FDF7FBF91E904FF07F501799FDF768
:102D80004DFA0A901D99FDF7F1F90B907148016811
:102D90000B98FDF7EBF91D906A481D990068FDF747
:102DA0003DFA099066481E990068FDF737FA0790CA
:102DB0006248006880F0004005901F99FDF72EFAE8
:102DC00006900799FDF724FA08900999FDF720FA73
:102DD0005D490A90FDF722FA0B90574801680B985D
:102DE000FDF7C4F95449086056481E990068FDF77C
:102DF00015FA099052481D990068FDF70FFA0790DF
:102E00004D481F990068FDF709FA06900799FDF7EC
:102E1000ADF908900999FDF7FBF94B490A90FDF7C8
:102E2000FDF90B90454801680B98FDF79FF9434960
:102E3000086044481F990068FDF7F0F909903F4881
:102E40001D990068FDF7EAF907903B481E99006854
:102E5000FDF7E4F906900799FDF7DAF9089009996A
:102E6000FDF784F938490A90FDF7D8F90B903448FA
:102E700001680B98FDF77AF93149086030481F99CD
:102E80000068FDF7CBF909902C481E990068FDF702
:102E9000C5F9079028481D990068FDF7BFF906900D
:102EA0000799FDF763F908900999FDF7B1F92649EB
:102EB0000A90FDF7B3F90B90224801680B98FDF7D3
:102EC00055F920490860084601680068FDF7A6F931
:102ED0000A901B4801680068FDF7A0F908901748A0
:102EE00001680068FDF79AF90690134801680068C8
:102EF000FDF794F905900699FDF738F907900899C0
:102F0000FDF734F909900A99FDF730F90B9003F0B9
:102F1000CDF91690084816990068FDF77FF9064923
:102F20000860064816990068FDF778F903490860BB
:102F3000034811E008650008400200204402002018
:102F4000480200204C0200200AD7A33B5002002078
:102F5000540200205802002016990068FDF75EF91F
:102F600074490860744816990068FDF757F972496A
:102F7000086011991598FDF7F9F80A900E99FDF778
:102F800047F90B900C99FDF743F92390129910988B
:102F9000FDF7ECF84FF080410B90FDF73FF92490DE
:102FA00013990F98FDF734F94FF080410B90FDF71E
:102FB00035F9259012991098FDF72AF94FF08041C4
:102FC0000B90FDF72BF9269011991598FDF720F934
:102FD0000A900E99FDF7CAF80B900C99FDF718F9B5
:102FE000279014990D98FDF7C1F84FF080410B9090
:102FF000FDF714F9289013990F98FDF7B7F84FF0E3
:1030000080410B90FDF70AF9299014990D98FDF76E
:10301000FFF84FF080410B90FDF700F92A901199CD
:103020001598FDF7F5F80A900E99FDF7F1F80B9059
:103030000C99FDF79BF82B902E9880683F490990DA
:10304000FDF7ECF83E490A90FDF7E8F80B90309850
:10305000806801460A900B98FDF788F830998860DF
:1030600013990F98FDF7D4F84FF080410490FDF7C5
:10307000D5F80590FDF700FACDE9060102F03EFD16
:1030800081F000414FF0C0422E4BCDE90801FDF721
:1030900035F9CDE90A01FDF71BFA3099086011995D
:1030A0001598FDF7B5F801900E99FDF7B1F802906B
:1030B0000C99FDF75BF80390FDF7DEF9CDE9060109
:1030C0004FF080401499FDF7A9F802904FF080402E
:1030D0000D99FDF7A3F801900299FDF747F80390C9
:1030E000FDF7CAF9CDE90401DDE9062302F04EFF40
:1030F00081F000414FF0C042124BCDE90801FDF7CD
:10310000FDF8CDE90A01FDF7E3F9309948600020A8
:103110002C900AE023A92C9851F820100A4A42F872
:1031200020102C98401CC0B22C902C980928F1DB60
:1031300000BF67E5480200204C020020A34C654216
:103140000AD7233C66A64C40AC08002008B50121F4
:10315000082000F06FFE4FF44070ADF80000102022
:103160008DF8030003208DF8020069460648FFF73A
:1031700095FA4FF480710448FFF71DFB4FF400717E
:103180000148FFF716FB08BD000C014010B50A48C6
:10319000007840B10020084908704FF4807107485A
:1031A000FFF709FB06E0012003490870010203480C
:1031B000FFF7FFFA10BD0000D5010020000C014010
:1031C00010B5FEF717FD1F480078D0B11E4AD16830
:1031D0009068FDF799F90ED21C4801780078401CE0
:1031E0001A4A10700A292BDD0020114608700120B0
:1031F0001749087024E00020144908701449087029
:103200001EE0114988681349FDF77EF910D2124873
:1032100001780078401C104A10700A2910DD002047
:103220000E4908701146087001200949087007E02E
:1032300001200A49087000200749087004490870F5
:1032400010BD000079020020E0010020F6010020FE
:10325000F4010020CDCC6C40F5010020D401002009
:1032600000B589B001210D2000F0E4FD012102200C
:1032700000F0D0FDC020ADF8200018208DF823000C
:1032800003208DF8220008A93848FFF707FA032029
:10329000ADF8200018208DF8230003208DF82200BF
:1032A00008A93348FFF7FAF940F2E730ADF8180003
:1032B0006420ADF814000020ADF81600ADF81A0037
:1032C00005A92C4801F096FE6020ADF8040000200E
:1032D000ADF80A00ADF80C000120ADF8060001A918
:1032E000244801F02BFD0821224801F073FD6020E5
:1032F000ADF804000020ADF80A00ADF80C00012084
:10330000ADF8060001A91B4801F06EFD082119481F
:1033100001F0BCFD6020ADF804000020ADF80A000B
:10332000ADF80C000120ADF8060001A9114801F02C
:10333000BBFD08210F4801F007FE6020ADF8040036
:103340000020ADF80A00ADF80C000120ADF8060031
:1033500001A9084801F002FE0821064801F03CFEE0
:103360000121044801F0A1FC09B000BD00080140A2
:10337000000C01400004004010B504E004A002F07D
:103380003DFA00F067FE00F06AF90028F6D010BDA3
:103390000D4D505536303530206E6F20636F6E6E98
:1033A0006563742E2E2E0D0A0000000010B5FFF785
:1033B000E3FF80216B2000F03DF96420FEF76EFFF3
:1033C00001216B2000F036F90021382000F032F99D
:1033D00018211B2000F02EF908211C2000F02AF9EA
:1033E00004211A2000F026F90021192000F022F90A
:1033F0000221372000F01EF910BD00000FB52B4848
:103400000088A0B90020ADF80000ADF80200ADF8CA
:1034100004002749086027490860274908600120FF
:103420002249088000230020108050809080BDF940
:1034300000001F49096808441D490860BDF90200E1
:103440001C49096808441B490860BDF90400C01AFA
:103450001949096808441849086014480088C828B0
:103460001DD1134800681149098890FBF1F000B2A2
:103470001080104800680D49098890FBF1F000B2F7
:1034800050800D4800680949098890FBF1F000B2AE
:103490009080002005490880012004B000BD034849
:1034A0000088401C014908800020F6E72C0200201B
:1034B0002002002024020020280200201CB54448DD
:1034C00040784349097840EA012042490988401A76
:1034D00000B2414908803E48C0783D49897840EAB9
:1034E00001203C494988401A00B23B49488038488D
:1034F00040793749097940EA012036498988401ADC
:1035000000B2354988803248407A3149097A40EA28
:10351000012032490988401A00B2314908802C48FC
:10352000C07A2B49897A40EA01202C494988401AFF
:1035300000B22B4948802648407B2549097B40EA58
:10354000012026498988401A00B2254988802548EB
:10355000007800F00100E0B1084601680091808821
:10356000ADF8040000231D4ADDE90001FFF746FF26
:1035700078B11C48007820F001001A49087000F06A
:10358000C5F9FFF71AF91748007840F0020015490D
:10359000087014480078C0F34000B8B10E480168C4
:1035A00000918088ADF8040042F20403094ADDE985
:1035B0000001FFF723FF48B10A48007820F002001D
:1035C0000849087000F0A2F9FDF75CFA1CBD000084
:1035D000480300200A0200201002002004020020FC
:1035E000160200201C02002010B5034A0E213B20C9
:1035F00000F011F810BD00004803002070B504462B
:103600000D462A462146D020FFF78AF908B101204D
:1036100070BD0020FCE770B504460D4616463346E3
:103620002A462146D020FFF7A0F908B1012070BD3D
:103630000020FCE770B504460D462A462146D020FE
:10364000FFF754FA08B1012070BD0020FCE708B56F
:1036500069467520FFF7D2FF9DF8000008BD10B540
:10366000FFF7F5FF682801D1012010BD0020FCE71D
:1036700030B5B0F57A7F01DD4FF47A70B1F57A7F1D
:1036800001DD4FF47A71B2F57A7F01DD4FF47A7281
:10369000B3F57A7F01DD4FF47A73002800DA002059
:1036A000002900DA0021002A00DA0022002B00DACB
:1036B0000023044D28802D1D29802D1D2A802D1DBD
:1036C0002B8030BD3404004070B5002100230F2250
:1036D000C47804B3154C246804F4E064C4F5E064D1
:1036E000210AC1F10403CA40447804FA03F1847842
:1036F0001440214309010E4C0678A155047804F0CA
:103700001F050124AC4005786D11AD0005F1E025E1
:10371000C5F8004109E0047804F01F050124AC401D
:10372000044D0678761145F8264070BD0CED00E09A
:1037300000E400E080E100E002490143024A116038
:10374000704700000000FA050CED00E008B54FF4EA
:10375000A060FFF7F1FF1E208DF8000001208DF81A
:1037600001008DF802008DF803006846FFF7ACFFFA
:1037700025208DF8000002208DF8010001208DF831
:1037800002008DF803006846FFF79EFF08208DF8C1
:10379000000002208DF801008DF8020001208DF854
:1037A00003006846FFF790FF08BD00002DE9F041D7
:1037B00004460E46154629463046FCF729FDE060D2
:1037C000A169E068FCF724FD6061E1682068FCF70E
:1037D00025FDA06294F83800FCF70BFE8046616876
:1037E000FCF71CFD07462169FCF718FDE0626169E2
:1037F000A068FCF713FD2063D4E90A01FCF7B6FCCE
:103800000746216BFCF7B2FC60631E480078012874
:1038100031D11D48B0F90400B4282CDB2846216AB8
:10382000FCF77CFE07D3206A80F000472946384623
:10383000FCF774FE03D2002084F838001DE001205C
:1038400084F83800D4E90310FCF790FC2061616A29
:103850002069FCF763FE01D2606A2061606A80F033
:10386000004738462169FCF759FE06D2606A80F0AD
:103870000040206101E000202061E068A061BDE817
:10388000F0810000790200208802002070B53E24FB
:103890002046E11704EB91718910A4EB8101091D09
:1038A00009B1012100E0002194FBF1F1CDB22A46DB
:1038B0000E490F4800F01EFF01F0EEFB0B48408A56
:1038C0004FF6FF7188420DD108488089884209D19E
:1038D0000648008B884205D1FEF7A0FC05A001F048
:1038E0008DFF01E0FEF79AFC70BD0000B00A0020D9
:1038F00000F80108466C61736820526561642045D8
:1039000072726F722121210D0A00000070B500F063
:103910001BF83E242046E11704EB91718910A4EBBB
:103920008101091D09B1012100E0002194FBF1F1A1
:10393000CDB22A460249034800F0F0FE70BD0000F7
:10394000B00A002000F8010810B5834800888349B8
:1039500008808148408848807F48808888808048E7
:103960000088C8807E48408808817D4880884881DA
:103970007C4908687C49FCF751FC0446FCF768FD6B
:1039800076498881774948687749FCF747FC0446BF
:10399000FCF75EFD7149C881724988687249FCF77D
:1039A0003DFC0446FCF754FD6C4908826F490868E9
:1039B0006D49FCF733FC0446FCF74AFD6749488231
:1039C0006A4948686849FCF729FC0446FCF740FD51
:1039D00062498882654988686349FCF71FFC044690
:1039E000FCF736FD5D49C882614908685E49FCF70D
:1039F00015FC0446FCF72CFD584908835C494868CF
:103A00005949FCF70BFC0446FCF722FD5349488357
:103A1000574988685449FCF701FC0446FCF718FD37
:103A20004E498883534908684F49FCF7F7FB044621
:103A3000FCF70EFD4949C8834E4948684A49FCF7DE
:103A4000EDFB0446FCF704FD4449088449498868B5
:103A50004549FCF7E3FB0446FCF7FAFC3F49488480
:103A6000454908684049FCF7D9FB0446FCF7F0FCDF
:103A70003A498884404948683B49FCF7CFFB0446F3
:103A8000FCF7E6FC3549C8843B4988683649FCF7B1
:103A9000C5FB0446FCF7DCFC30490885374908685B
:103AA0003149FCF7BBFB0446FCF7D2FC2B494885A7
:103AB000324948682C49FCF7B1FB0446FCF7C8FCC6
:103AC000264988852D4988682749FCF7A7FB0446C5
:103AD000FCF7BEFC2149C885294908682249FCF742
:103AE0009DFB0446FCF7B4FC1C4908862449486841
:103AF0001D49FCF793FB0446FCF7AAFC17494886CE
:103B00001F4988681849FCF789FB0446FCF7A0FCAC
:103B1000124988861B4908681349FCF77FFB044655
:103B2000FCF796FC0D49C886164948680E49FCF713
:103B300075FB0446FCF78CFC084908871149886826
:103B40000949FCF76BFB0446FCF782FC03494887F4
:103B50000D480078888710BD0A020020B00A0020B6
:103B600004020020D008002000007A440C09002044
:103B70004809002084090020C0090020FC09002019
:103B8000380A0020740A0020F701002000201E4996
:103B900081F838001D4808621D48486200201D4910
:103BA00081F838001C4808621C48486200201C4903
:103BB00081F8380015480862154848620020194904
:103BC00081F83800144808621448486200201649F9
:103BD00081F838000D4808620D48486200201349FA
:103BE00081F838000C4808620C48486200201049EF
:103BF00081F83800086248620E4981F838000E48A2
:103C00000862064848627047840900200000164395
:103C100000009644D008002000000C4200004843F9
:103C2000C00900200C090020FC09002048090020E0
:103C3000380A0020740A00200000C84270B5FFF75F
:103C4000D3FCFFF73BFC0C225149524800F0A8FE80
:103C50004F4908685049FCF7E1FA04464F49FCF720
:103C6000DDFA4B49086048684B49FCF7D7FA04462F
:103C70004A49FCF7D3FA4649486088684649FCF748
:103C8000CDFA04464549FCF7C9FA414988604449E0
:103C9000B1F90000FCF7A4FB04464249FCF7BEFA68
:103CA000414908603E49B1F90200FCF799FB04461E
:103CB0003C49FCF7B3FA3C4948603949B1F9040082
:103CC000FCF78EFB04463749FCF7A8FA36498860B2
:103CD0003648007800283CD0354908683549FCF75B
:103CE0009DFA04462A4908683349FCF797FA0546C5
:103CF0002146FCF73BFA264908602D4948682D49C2
:103D0000FCF78CFA0446224948682B49FCF786FAEE
:103D100005462146FCF72AFA1D494860244988686F
:103D20002449FCF77BFA0446194988682249FCF7C4
:103D300075FA05462146FCF719FA154988600846C8
:103D400000681B4908601248406848601048806855
:103D500088600F480068194908600D48406848604D
:103D60000B488068886008680021FCF7CDFB0ED006
:103D7000124948680021FCF7C7FB08D00F49886842
:103D80000021FCF7C1FB02D001200D49087070BD75
:103D90007C0800201002002040DAFF380AE81C41AD
:103DA0001602002045798B3A640800205C0200204E
:103DB00094080020CDCCCC3D6666663FA00800206C
:103DC0003C0200202DE9F04107460D461646B5425B
:103DD00012DA324629463846FEF713FC8046FCF7D5
:103DE0001EFB0446621E29463846FFF7EBFF3246AB
:103DF000611C3846FFF7E6FFBDE8F0810146002070
:103E0000034A506820F44040084350607047000067
:103E10000010024029B1064AD2690243044BDA611C
:103E200004E0034AD2698243014BDA617047000023
:103E30000010024029B1064A92690243044B9A617C
:103E400004E0034A92698243014B9A617047000083
:103E50000010024030B500210022002400232D4D27
:103E60006D6805F00C0121B1042905D0082923D182
:103E700005E0294D056022E0274D05601FE0254D36
:103E80006D6805F47012234D6D6805F480340225C9
:103E900005EB92421CB9214D554305600BE01D4DC9
:103EA0006D6805F400351DB11C4D5543056002E0F9
:103EB000194D5543056002E0174D056000BF00BF76
:103EC000144D6D6805F0F0010909154D6B5C05682E
:103ED000DD4045600F4D6D6805F4E061090A104D45
:103EE0006B5C4568DD4085600A4D6D6805F4605186
:103EF000C90A0B4D6B5C4568DD40C560054D6D68BA
:103F000005F44041890B074D6B5CC568B5FBF3F5C3
:103F1000056130BD0010024000127A0000093D002A
:103F200092020020A202002010B5002406E0FF2229
:103F30000021084601F014FC601CC4B2042CF6DB1E
:103F400010BD10B500240EE0022C05DA0022114647
:103F5000FF2001F005FC04E00022FF21104601F0E3
:103F6000FFFB601CC4B2042CEEDB10BD10B50024B6
:103F700006E000221146104601F0F2FB601CC4B2BC
:103F8000042CF6DB10BD10B5002406E00022FF2152
:103F9000104601F0E5FB601CC4B2042CF6DB10BD3A
:103FA000F0B5002500260027264801780078401C3F
:103FB000244A1070102907DB00201146087022489F
:103FC0000078401C20490870002431E01F48007828
:103FD000042802DD00201D4908701D481A4909788F
:103FE00000EB81101949097850F82100C0F307450A
:103FF00017481549097800EB81101449097830F801
:104000002100C0F3072612480F49097800EB811000
:104010000E49097810F821703A462946304601F0D9
:104020009FFB0A480078401C08490870601CC4B215
:10403000042CCBDB04480078072802D10020024979
:104040000870F0BDD8010020D7010020D601002063
:104050001400002010B5002406E000221146FF20C5
:1040600001F07EFB601CC4B2042CF6DB10BD00B571
:104070000346002200BF0BE003FA02F000F001004B
:1040800010B101F031FB01E001F0F6FA501CC2B2B0
:10409000082AF1DB00BD000010B501201F4908709F
:1040A0001F48C07AA52800D010BD1D48007800F038
:1040B000010020B31A4880781949C97840EA0120E4
:1040C00000B21849C880164800791549497940EA74
:1040D000012000B213498880114880791049C979BC
:1040E00040EA012000B20F4908800D48007A0C49CF
:1040F000497A40EA012000B20A49488008E00848AD
:10410000007800F0080018B105494878FDF7D2FDA5
:104110000348807A0449087000BFC5E77802002090
:10412000E8020020880200208602002008B5012154
:104130000820FFF77FFE8020ADF8000004208DF8F6
:10414000030069460148FEF7A9FA08BD000C0140CA
:1041500008B501210820FFF76DFE8020ADF80000B2
:1041600010208DF8030003208DF8020069460248F4
:10417000FEF794FA08BD0000000C014010B504E001
:1041800004A001F03BFBFFF7FEFE00F0A5F90028BC
:10419000F6D010BD0D20534932345231206E6F20BD
:1041A000636F6E6E6563742E2E2E0D0A0000000084
:1041B00010B51E48006840F480701C490860032157
:1041C000232000F0AFF905221949302000F042F910
:1041D000052217492A2000F03DF91A21242000F079
:1041E000A1F90121222000F09DF90121212000F0F8
:1041F00099F92021312000F095F905220D492A2056
:1042000000F028F91E21252000F08CF92721262016
:1042100000F088F90F2000F0A1F90448001F0068A1
:1042200040F480700149091F086010BD1408014066
:10423000F8010020FD01002010B513480078322855
:1042400010DD4FF0E0218869FBF776FFFBF76AFF8E
:10425000322190FBF1F201FB12000B490870FFF7CD
:1042600055FB0FE00948007907490978884209D0D1
:104270000548007805490871034800780449087129
:10428000FFF796FF10BD0000F7010020F8010020A5
:10429000FD01002008B501210C20FFF7CBFD4FF4F4
:1042A0008050ADF8000010208DF8030003208DF839
:1042B000020069461748FEF7F1F94FF4805115489E
:1042C000FEF777FA4FF48070ADF8000010208DF8FB
:1042D000030003208DF8020069460F48FEF7DEF95F
:1042E0004FF480710C48FEF764FA00F097F9FFF77D
:1042F00045FF08481030006840F4805005491031EF
:10430000086005481430006840F480700249143198
:10431000086008BD000C0140000801402DE9F04193
:1043200007460C4615460F48006840F480500D497A
:104330000860384600F04AF98046002605E0FF2074
:1043400000F044F92070641C761CAE42F7DB05488F
:10435000001F006840F480500249091F0860404671
:10436000BDE8F081140C014010B504460B4800680C
:1043700040F4807009490860202221466120FFF73F
:10438000CDFFFF21E22000F0CDF80448001F0068B7
:1043900040F480700149091F086010BD14080140F5
:1043A00010B50F480078C8B10E48007850B10E48DB
:1043B00000780E490978884204D101F04DF9FFF7E1
:1043C000E2FD07E00748007820B10948007808B905
:1043D000FFF7B7FD044800780449087010BD0000DD
:1043E000780200207902002086020020910200203D
:1043F000F401002010B504461448006840F48070B1
:104400001249086005221249302000F023F80522E5
:104410000F492A2000F01EF820222146A02000F09B
:1044200019F80E21202000F07DF87E21272000F0D1
:1044300079F80648001F006840F480700349091F9E
:1044400008600A20FDF74EFF10BD0000140801406F
:10445000F80100202DE9F04107460C4615460F48AB
:10446000006840F480500D490860384600F0AEF80E
:104470008046002604E0207800F0A8F8641C761C32
:10448000AE42F8DB0548001F006840F48050034945
:10449000091F08604046BDE8F0810000140C01408F
:1044A00070B504460B48006840F480500949086024
:1044B000204600F08BF8FF2000F088F805460548FC
:1044C000001F006840F480500249091F0860284618
:1044D00070BD0000140C01401CB510A103C9CDE94A
:1044E0000001052269463020FFF7B4FF0522694626
:1044F0001020FFF713FF002406E01DF80400A52894
:1045000000D003E0601CC4B2052CF6DB00BF052C14
:1045100001D000201CBD0120FCE70000A5A5A5A539
:10452000A500000070B505460C460B48006840F435
:10453000805009490860284600F048F806462046A1
:1045400000F044F80448001F006840F4805002491D
:10455000091F0860304670BD140C014010B50446B8
:104560000E2C16D11848006840F480701649086077
:104570000E212020FFF7D6FF7E212720FFF7D2FF54
:104580001148001F006840F480700F49091F08603F
:1045900018E00D48006840F480700B4908600F2156
:1045A0002020FFF7BFFF7E212720FFF7BBFF064833
:1045B000001F006840F480700349091F0860C8208C
:1045C000FDF790FE10BD00001408014010B5044630
:1045D00000BF02210A4800F061F80028F9D0214606
:1045E000074800F067F800BF0121054800F056F8C1
:1045F0000028F9D0024800F05AF8C0B210BD0000FF
:104600000038004021B1028842F04002028004E0FC
:1046100002884FF6BF731A400280704700B587B01A
:1046200001210820FFF706FC01218803FFF7F2FBB8
:104630004FF46040ADF8040018208DF80700032007
:104640008DF8060001A91348FEF728F84FF4827090
:10465000ADF80A004FF40070ADF812000020ADF87C
:104660001000ADF80E00ADF80C001020ADF81400ED
:104670000020ADF80800ADF816000720ADF81800CE
:1046800002A9054800F018F801210348FFF7BAFF16
:1046900007B000BD000C0140003800400246002079
:1046A00013890B400BB1012000E000207047014648
:1046B000888970478181704710B50022028802F412
:1046C00041520B884C8823438C882343CC88234356
:1046D0000C8923434C8923438C892343CC8923436E
:1046E0001A430280838B4FF2FF74234083830B8A2B
:1046F000038210BD30B503460C461546002206E085
:10470000184600F007F844F822001B1D521CAA426C
:10471000F6D330BD01460868704700002DE9F04728
:1047200004460E4617464FF004080025A946B4F18A
:10473000006F02D31948844201D3BDE8F087FDF72A
:1047400041FF254604EB87091448854211D20DE04C
:104750002846FFF7DFFF401C38B11148FDF7B2FED5
:104760008046B8F1040F01D002E02D1D4D45EFD376
:1047700000BFB8F1040F0CD108E020463168FDF706
:10478000EBFE042800D003E0241D361D4C45F4D375
:1047900000BFFDF7D7FE00BFCFE700000000020812
:1047A00000F8010838B53C48007830B13B48007843
:1047B00040F010003949087005E03848007820F0D2
:1047C000100036490870FF203549087033480078DA
:1047D00048703448B0F9040000909DF801008870DA
:1047E0009DF80000C870304988683049FBF716FD15
:1047F0000446FBF714FE00B200909DF80100284922
:1048000008719DF800004871274948682749FBF75F
:1048100005FD0446FBF703FE00B200909DF8010081
:104820001F4988719DF80000C8711F4908681F4919
:10483000FBF7F4FC0446FBF7F2FD00B200909DF894
:104840000100174908729DF8000048721849C869AC
:104850001649FBF7E3FC0446FBF7E1FD00B20090CC
:104860009DF801000E4988729DF80000C872114938
:1048700088680E49FBF7D2FC0446FBF7D0FD00B276
:1048800000909DF80100064908739DF800004873E8
:104890000846FFF7AFFD38BD790200201C0200205A
:1048A000C802002088020020580800200000C842EA
:1048B00008030020E001002010B500F001F810BD51
:1048C0000CB50020019000903348006840F480301F
:1048D0003149086000BF3048006800F400300090A3
:1048E0000198401C0190009818B90198B0F5A06F8C
:1048F000F1D12948006800F4003010B10120009087
:1049000001E0002000900098012843D1234800686E
:1049100040F01000214908600846006820F00300BC
:1049200008600846006840F0020008601A484068C5
:10493000194948600846406848600846406840F4A5
:10494000806048600846406820F47C104860084653
:10495000406840F4E81048600846006840F0807005
:10496000086000BF0C48006800F000700028F9D013
:104970000948406820F0030007494860084640683D
:1049800040F00200486000BF0348406800F00C009F
:104990000828F9D10CBD00000010024000200240A0
:1049A0002DE9F05F06460F4614464FF00008C14659
:1049B000C246B6F90000FBF713FD3B493B4A1278AB
:1049C00041F82200B6F90200FBF70AFD3849374AE0
:1049D000127841F82200B6F90400FBF701FD3549D1
:1049E000324A127841F8220030480078401C2F49A2
:1049F000087008460078A04204DA2F48007808B111
:104A0000BDE8F09F00202C490870621E0021264856
:104A1000FFF7D8F9621E00212548FFF7D3F9621E7F
:104A200000212448FFF7CEF9012516E01E4850F872
:104A300025104046FBF79AFB80461D4850F825108C
:104A40004846FBF793FB81461A4850F8251050461C
:104A5000FBF78CFB8246681CC5B2601EA842E5DCF1
:104A600012480078A04202DB002010490870A01E06
:104A7000FBF7B6FC834659464046FBF701FC38601D
:104A8000A01EFBF7ADFC834659464846FBF7F8FBF2
:104A90007860A01EFBF7A4FC834659465046FBF7FE
:104AA000EFFBB86000BFABE7F80300203202002044
:104AB000480400209804002033020020042808D174
:104AC0004FF0E021096941F004014FF0E02211614B
:104AD00007E04FF0E021096921F004014FF0E022E6
:104AE0001161704710B51348006840F0010011498A
:104AF000086008464068104908400E49486008466A
:104B000000680E4908400B4908600846006820F418
:104B1000802008600846406820F4FE0048604FF49A
:104B20001F008860FFF7C8FE4FF00060044908606E
:104B300010BD0000001002400000FFF8FFFFF6FE6D
:104B400008ED00E010B5FEF701FEFEF7FFFAFDF7F5
:104B500083FB4FF4E12000F033FDFDF781FE00F010
:104B6000CBF8FDF787FCFFF795FBFEF71FFCFEF780
:104B700077FBFDF767F8FEF789FEFFF707F8FFF709
:104B8000F5F902A000F03AFE10BD000053797374ED
:104B9000656D20496E69742046696E6973680A0004
:104BA00010B50121324800F08CF800285AD0314865
:104BB0000088401C2F4908802F480088401C2E493F
:104BC00008802E480088401C2C4908802C4800880A
:104BD000401C2B4908802B480088401C294908802C
:104BE00029480088401C284908802248008802285B
:104BF00005DB00201F4908800120244908701E4859
:104C00000088052805DB00201B4908800120204979
:104C100008701A4800880A2805DB00201749088018
:104C200001201C49087016480088642805DB002014
:104C30001349088001201849087012480088C828C4
:104C400005DB00200F4908800120144908700E4838
:104C50000088B0F5C87F05DB00200B4908800120E3
:104C60000F4908700121024800F01CF810BD000037
:104C70000008004006000020080000200A00002074
:104C80000C0000200E000020100000200500002075
:104C9000020000200100002000000020030000208E
:104CA00004000020CA430282704721B1028842F00A
:104CB0000102028004E002884FF6FE731A4002806F
:104CC000704730B50246002000230024158A05EA0B
:104CD0000103958905EA010413B10CB1012000E03C
:104CE000002030BD1AB183890B43838102E08389A0
:104CF0008B438381704700000EB501210420FFF72C
:104D000089F840F2CF20ADF804006320ADF8000030
:104D10000020ADF80600ADF802006946064800F034
:104D200069F9012211460448FFF7DCFF012102481E
:104D3000FFF7BBFF0EBD00000008004070B5002467
:104D400000220023058C4FF6FE7635400584028C48
:104D50008388048B4FF68F752C40B51E2C400D8830
:104D60002C43751E2A400D892A434D882A43144D31
:104D7000A8420BD0134DA84208D0134DA84205D02D
:104D8000124DA84202D0124DA84213D14FF6F7752A
:104D90002A404D892A434FF6FB752A408D882A43C5
:104DA0004FF6FF652B404FF6FF552B408D892B4367
:104DB000CD892B4383800483CD888586028470BD92
:104DC000002C0140003401400040014000440140FB
:104DD000004801400A460021018B4FF6F773194045
:104DE000114301837047000070B5002400220023A6
:104DF000058C4FF6EF7635400584028C8388048B52
:104E000048F6FF752C404FF6FF452C400D884FF6B5
:104E1000FF7606EA05252C434FF6DF752A400D89FB
:104E200006EA05152A434D8806EA05152A43154D5D
:104E3000A84202D0144DA8421DD14FF67F752A40DA
:104E40004D894FF6FF7606EA05152A434FF6BF75E2
:104E50002A408D8806EA05152A434FF6FF352B4078
:104E60004FF2FF752B408D8906EA85052B43CD89CE
:104E700006EA85052B4383800483CD880587028459
:104E800070BD0000002C0140003401400A460021A2
:104E9000018B4FF2FF7319404FF6FF7303EA0223B1
:104EA000194301837047000070B5002400220023DD
:104EB000058C4FF6FF6635400584028C8388848B11
:104EC0004FF68F752C404FF6FC752C400D882C4307
:104ED0004FF6FF552A400D894FF6FF7606EA052565
:104EE0002A434D8806EA05252A43154DA84202D0DB
:104EF000144DA8421DD14FF2FF752A404D894FF63F
:104F0000FF7606EA05252A434FF6FF352A408D88AD
:104F100006EA05252A434EF6FF752B404DF6FF7530
:104F20002B408D8906EA05152B43CD8906EA051528
:104F30002B4383808483CD888587028470BD0000E5
:104F4000002C0140003401400A460021818B4FF6BD
:104F5000F7731940114381837047000070B5002238
:104F600000230024058C4EF6FF7635400584038C23
:104F70008488828B48F6FF752A404FF6FF452A4009
:104F80000D884FF6FF7606EA05252A434DF6FF7594
:104F90002B400D8906EA05352B434D8806EA053579
:104FA0002B430B4DA84202D00A4DA84208D14BF624
:104FB000FF752C408D894FF6FF7606EA85152C4348
:104FC00084808283CD88A0F84050038470BD0000A7
:104FD000002C0140003401400A460021818B4FF231
:104FE000FF7319404FF6FF7303EA022319438183CD
:104FF00070470000002202881D4B98420ED01D4BC6
:1050000098420BD0B0F1804F08D01B4B984205D08E
:105010001A4B984202D01A4B984204D14FF68F7324
:105020001A404B881A43174B984207D0164B9842A8
:1050300004D04FF6FF431A40CB881A4302808B8876
:1050400083850B8803850A4B98420BD0094B984205
:1050500008D00E4B984205D00D4B984202D00D4B14
:10506000984201D10B7A03860123838270470000A6
:10507000002C0140003401400004004000080040C2
:10508000000C0040001000400014004000400140AF
:10509000004401400048014010B58848008800B233
:1050A000874908808548408800B2488083488088C6
:1050B00000B288808148C08800B2824908807F4859
:1050C000008900B248807D48408900B288807B49D1
:1050D0008889FBF78EF904467B49FBF7D1F87B49B9
:1050E00008607649C889FBF784F904467649FBF7DE
:1050F000C7F8764948607149088AFBF77AF904468F
:105100007149FBF7BDF8714988606C49488AFBF723
:1051100070F904466C49FBF7B3F86D4908606749BC
:10512000888AFBF766F904466749FBF7A9F86849DE
:1051300048606249C88AFBF75CF904466249FBF79C
:105140009FF8634988605D49088BFBF752F9044674
:105150005D49FBF795F85F4908605849488BFBF7B4
:1051600048F904465849FBF78BF85A4948605349B7
:10517000888BFBF73EF904465349FBF781F8554904
:1051800088604E49C88BFBF734F904464E49FBF75B
:1051900077F8514908604949088CFBF72AF9044619
:1051A0004949FBF76DF84C4948604449488CFBF786
:1051B00020F904464449FBF763F8474988603F49B2
:1051C000888CFBF716F904463F49FBF759F8434929
:1051D00008603A49C88CFBF70CF904463A49FBF7DA
:1051E0004FF83E4948603549088DFBF702F90446FF
:1051F0003549FBF745F8394988603049488DFBF758
:10520000F8F804463049FBF73BF8354908602B496C
:10521000888DFBF7EEF804462B49FBF731F830494F
:1052200048602649C88DFBF7E4F804462649FBF799
:1052300027F82B4988602149088EFBF7DAF80446E5
:105240002149FBF71DF8274908601C49488EFBF7E8
:10525000D0F804461C49FBF713F822494860174967
:10526000888EFBF7C6F804461749FBF709F81D4975
:1052700088601249C88EFBF7BCF804461249FAF759
:10528000FFFF194908600D49088FFBF7B2F8044683
:105290000D49FAF7F5FF144948600849488FFBF7B4
:1052A000A8F804460849FAF7EBFF0F49886003485D
:1052B00090F83C000D49087010BD0000B00A0020B5
:1052C0000A0200200402002000007A44D0080020D6
:1052D0000C0900204809002084090020C009002092
:1052E000FC090020380A0020740A0020F701002081
:1052F00010B52148007820B100201F490870FBF745
:1053000089FC1E48007880B100201C490870FEF717
:1053100095FC1B4A1B491C48FDF70CFC1B480378F5
:105320001B4A19491648FCF707FD1A48007870B166
:10533000002018490870FDF729FF1448007820B9AB
:105340001548007808B1FEF72BFEFCF73BFC13482C
:10535000007830B1002011490870FFF721F8FFF7FD
:1053600021FA0F48007830B100200D490870FEF78F
:1053700063FFFDF725FF10BD0500002001000020A0
:10538000580800207C0800206408002079020020D2
:105390008802002000000020D4010020030000202B
:1053A0000400002070B500BF40F225510F4800F006
:1053B00047F838B10D48001D0088C4B22046FCF7FC
:1053C0006DF80CE040F22441084800F039F830B1A3
:1053D00006480088C5B20548001D0088C5B240F2E5
:1053E0002551024800F004F870BD0000003801406B
:1053F00010B50022002340F66A14A14200D100BF7C
:105400000A1201249440A3B2DC43048010BD21B1F0
:10541000828942F40052828104E082894DF6FF7352
:105420001A408281704702460020B1F5007F00D10A
:1054300000BF13880B400BB1012000E00020704733
:1054400070B50246002400230025002040F66A16AD
:10545000B14200D100BFC1F3421501F01F03012684
:1054600006FA03F3012D02D19689334006E0022D9E
:1054700002D1168A334001E0968A33400C1201268D
:1054800006FA04F41688344013B10CB1012000E090
:10549000002070BDF0B50346002400260025002042
:1054A00040F66A17B94200D100BF1846C1F3421452
:1054B00001F01F06012707FA06F5012C01D10C3077
:1054C00004E0022C01D1103000E014301AB107685A
:1054D0002F43076002E00768AF430760F0BD00009C
:1054E0002DE9F04786B005460E460024A24600BFCF
:1054F000A1460027B08900B100BF2F462C8A4CF688
:10550000FF700440F08804432C82AC894EF6F310FF
:105510000440B08831890843718908430443AC8151
:10552000AC8A4FF6FF400440B0890443AC8201A826
:10553000FEF790FC1F48874202D1DDF810A001E081
:10554000DDF80CA0A88900F4004040B10AEBCA00C5
:1055500000EB0A1031684900B0FBF1F807E00AEBF4
:10556000CA0000EB0A1031688900B0FBF1F8642032
:10557000B8FBF0F004012009642101FB1089A8891F
:1055800000F4004040B1322000EBC900B0FBF1F064
:1055900000F00700044308E0322000EB091064210A
:1055A000B0FBF1F000F00F0004432C8106B0BDE821
:1055B000F087000000380140C1F308028280704784
:1055C00010B586B00446012144F20400FEF732FC17
:1055D0004FF40070ADF8140018208DF81700032068
:1055E0008DF8160005A91A48FDF758F84FF48060A9
:1055F000ADF8140004208DF8170003208DF8160074
:1056000005A91348FDF74AF80C20ADF80E0000205C
:10561000ADF80C000194ADF80A00ADF80800ADF843
:10562000100001A90B48FFF75BFF012240F2255152
:105630000848FFF72FFF012240F224410548FFF7F9
:1056400029FF01210348FFF7E2FE06B010BD00006C
:10565000000801400038014006488088801F00B2E1
:10566000044988800846B0F90400962801DC962099
:1056700088807047880200201A48006840F4007053
:105680001849086000BF00BF00BF00BF00BF00BFD7
:105690001448001D006840F400701249091D08609C
:1056A00000BF00BF00BF00BF00BF00BF00BF00BF02
:1056B00000BF00BF00BF00BF00BF00BF00BF00BFF2
:1056C00000BF00BF00BF00BF00BF00BF00BF00BFE2
:1056D00000BF00BF00BF00BF00BF00BF00BF00BFD2
:1056E00070470000100C01401C48006840F4007036
:1056F0001A49086000BF00BF00BF00BF00BF00BF65
:1057000000BF00BF00BF00BF00BF00BF00BF00BFA1
:1057100000BF00BF00BF00BF00BF00BF00BF00BF91
:1057200000BF00BF00BF00BF00BF00BF00BF00BF81
:1057300000BF00BF0948001D006840F40070074921
:10574000091D086000BF00BF00BF00BF00BF00BF51
:1057500000BF00BF00BF00BF70470000100C014039
:1057600070B506460C4615463046FEF780FC2046CE
:10577000FEF77DFC2846FEF77AFC70BD2DE9FE4F52
:1057800004468946D9F80800FAF776FE21F0004170
:1057900007464FF00052184BFAF7B0FD0546FAF7EE
:1057A00097FE8246504600F0B1FC0290504600F051
:1057B000A9FD0190D4F800B060680090DDE9000117
:1057C000FAF72CFD054658460299FAF727FD0646DA
:1057D0002946FAF7CBFC206058460199FAF71EFDDE
:1057E000054602990098FAF719FD06462946FAF788
:1057F0000FFD6060BDE8FE8F47DF913F014A02491F
:1058000000F06AB989620008C0020020490050EA2D
:10581000C12018BF04204A0D18BF40F0010040F21B
:10582000FF72B2EB515F08BF40F00200012808BFD1
:10583000052070474100080218BF04200A0E18BF57
:1058400040F001004FF07F4232EA010108BF40F012
:105850000200012808BF052070472DE9F0414F1EC6
:1058600000EBC7010446D1E9000115461E4637F09A
:1058700006020DD02A463346FAF740FD7F1E04EBA0
:10588000C703D3E90023FAF720FF37F00602F1D16E
:10589000022F25D0042F13D0062F18BFBDE8F081AA
:1058A0002A463346FAF72AFDD4E90A23FAF70DFF10
:1058B0002A463346FAF722FDD4E90823FAF705FF12
:1058C0002A463346FAF71AFDD4E90623FAF7FDFE15
:1058D0002A463346FAF712FDD4E90423FAF7F5FE17
:1058E0002A463346FAF70AFDD4E90223FAF7EDFE19
:1058F0002A463346FAF702FDD4E90023BDE8F04119
:10590000FAF7E3BE0122FAF7F6BFFAF7DEBE00228D
:10591000134610461146FAF77FBF0000024A0020E6
:105920001107FAF7E8BF000001FDFFFF0121FAF7B8
:1059300045BE00210846FAF7A3BC6FF05E010807D8
:10594000FAF73CBE2DE9F04D0D4614464FF07F416D
:10595000B1EB440F9EBF4FF0FF312960BDE8F08DE1
:105960004FF0004040EA0421C4F3C750783810F0EB
:105970001F024A4B4FEA601CC2F120067B44C4F36D
:10598000C750A0F178004FEA601003EB800053F895
:105990002C3008BFD0E901C612D0D0F804C0934023
:1059A0002CFA06F73B4387680CFA02FC27FA06F844
:1059B000C06807FA02F2F0404CEA080C42EA00061E
:1059C000A3FB0132ACFB01C0A6FB016101EB0C069D
:1059D0008E4234BF4FF0010C4FF0000CC1186144EF
:1059E000BCF1000F02D0814202D903E0814201D212
:1059F000012000E00020104400F120024FEA92183C
:105A00008006CA0C40EA42304F03C5F80080FAF71E
:105A1000E7FC82463846FAF7ECFC6FF01201FAF721
:105A2000CDFD07463046FAF7E4FC6FF02501FAF7A2
:105A3000C5FD834639465046FAF798FB5946FAF7B2
:105A400095FB00F500666FF30B0651463046FAF7FA
:105A5000DFFB3946FAF7DCFB5946FAF7DCFB104965
:105A6000FAF7DCFB07460F493046FAF7D7FB394611
:105A7000FAF77CFB07460C493046FAF7CFFB39466C
:105A8000FAF774FB14F0004F08BFBDE8F08DC8F1C1
:105A9000805180F000402960BDE8F08DA00C00002E
:105AA000DB0FC92F22AAFD290000C92F02E008C878
:105AB000121F08C1002AFAD170477047002001E088
:105AC00001C1121F002AFBD1704700000149086084
:105AD00070470000C40200202DE9F04116460F4631
